{
  "address": "0x403836b0DB7A5FA94bCBaCA8982ab0D87b88E520",
  "abi": [
    {
      "inputs": [
        {
          "internalType": "string",
          "name": "_baseUrl",
          "type": "string"
        }
      ],
      "stateMutability": "nonpayable",
      "type": "constructor"
    },
    {
      "anonymous": false,
      "inputs": [
        {
          "indexed": true,
          "internalType": "address",
          "name": "owner",
          "type": "address"
        },
        {
          "indexed": true,
          "internalType": "address",
          "name": "approved",
          "type": "address"
        },
        {
          "indexed": true,
          "internalType": "uint256",
          "name": "tokenId",
          "type": "uint256"
        }
      ],
      "name": "Approval",
      "type": "event"
    },
    {
      "anonymous": false,
      "inputs": [
        {
          "indexed": true,
          "internalType": "address",
          "name": "owner",
          "type": "address"
        },
        {
          "indexed": true,
          "internalType": "address",
          "name": "operator",
          "type": "address"
        },
        {
          "indexed": false,
          "internalType": "bool",
          "name": "approved",
          "type": "bool"
        }
      ],
      "name": "ApprovalForAll",
      "type": "event"
    },
    {
      "anonymous": false,
      "inputs": [
        {
          "indexed": true,
          "internalType": "address",
          "name": "previousOwner",
          "type": "address"
        },
        {
          "indexed": true,
          "internalType": "address",
          "name": "newOwner",
          "type": "address"
        }
      ],
      "name": "OwnershipTransferred",
      "type": "event"
    },
    {
      "anonymous": false,
      "inputs": [
        {
          "indexed": true,
          "internalType": "address",
          "name": "from",
          "type": "address"
        },
        {
          "indexed": true,
          "internalType": "address",
          "name": "to",
          "type": "address"
        },
        {
          "indexed": true,
          "internalType": "uint256",
          "name": "tokenId",
          "type": "uint256"
        }
      ],
      "name": "Transfer",
      "type": "event"
    },
    {
      "inputs": [
        {
          "internalType": "address",
          "name": "to",
          "type": "address"
        },
        {
          "internalType": "uint256",
          "name": "tokenId",
          "type": "uint256"
        }
      ],
      "name": "approve",
      "outputs": [],
      "stateMutability": "nonpayable",
      "type": "function"
    },
    {
      "inputs": [
        {
          "internalType": "address",
          "name": "owner",
          "type": "address"
        }
      ],
      "name": "balanceOf",
      "outputs": [
        {
          "internalType": "uint256",
          "name": "",
          "type": "uint256"
        }
      ],
      "stateMutability": "view",
      "type": "function"
    },
    {
      "inputs": [],
      "name": "baseUrl",
      "outputs": [
        {
          "internalType": "string",
          "name": "",
          "type": "string"
        }
      ],
      "stateMutability": "view",
      "type": "function"
    },
    {
      "inputs": [],
      "name": "currentId",
      "outputs": [
        {
          "internalType": "uint256",
          "name": "",
          "type": "uint256"
        }
      ],
      "stateMutability": "view",
      "type": "function"
    },
    {
      "inputs": [
        {
          "internalType": "uint256",
          "name": "tokenId",
          "type": "uint256"
        }
      ],
      "name": "getApproved",
      "outputs": [
        {
          "internalType": "address",
          "name": "",
          "type": "address"
        }
      ],
      "stateMutability": "view",
      "type": "function"
    },
    {
      "inputs": [
        {
          "internalType": "address",
          "name": "owner",
          "type": "address"
        },
        {
          "internalType": "address",
          "name": "operator",
          "type": "address"
        }
      ],
      "name": "isApprovedForAll",
      "outputs": [
        {
          "internalType": "bool",
          "name": "",
          "type": "bool"
        }
      ],
      "stateMutability": "view",
      "type": "function"
    },
    {
      "inputs": [
        {
          "internalType": "address",
          "name": "_to",
          "type": "address"
        },
        {
          "internalType": "uint256",
          "name": "_achievementId",
          "type": "uint256"
        },
        {
          "internalType": "bytes",
          "name": "_sig",
          "type": "bytes"
        }
      ],
      "name": "mint",
      "outputs": [],
      "stateMutability": "nonpayable",
      "type": "function"
    },
    {
      "inputs": [],
      "name": "name",
      "outputs": [
        {
          "internalType": "string",
          "name": "",
          "type": "string"
        }
      ],
      "stateMutability": "view",
      "type": "function"
    },
    {
      "inputs": [],
      "name": "owner",
      "outputs": [
        {
          "internalType": "address",
          "name": "",
          "type": "address"
        }
      ],
      "stateMutability": "view",
      "type": "function"
    },
    {
      "inputs": [
        {
          "internalType": "uint256",
          "name": "tokenId",
          "type": "uint256"
        }
      ],
      "name": "ownerOf",
      "outputs": [
        {
          "internalType": "address",
          "name": "",
          "type": "address"
        }
      ],
      "stateMutability": "view",
      "type": "function"
    },
    {
      "inputs": [],
      "name": "renounceOwnership",
      "outputs": [],
      "stateMutability": "nonpayable",
      "type": "function"
    },
    {
      "inputs": [
        {
          "internalType": "address",
          "name": "from",
          "type": "address"
        },
        {
          "internalType": "address",
          "name": "to",
          "type": "address"
        },
        {
          "internalType": "uint256",
          "name": "tokenId",
          "type": "uint256"
        }
      ],
      "name": "safeTransferFrom",
      "outputs": [],
      "stateMutability": "nonpayable",
      "type": "function"
    },
    {
      "inputs": [
        {
          "internalType": "address",
          "name": "from",
          "type": "address"
        },
        {
          "internalType": "address",
          "name": "to",
          "type": "address"
        },
        {
          "internalType": "uint256",
          "name": "tokenId",
          "type": "uint256"
        },
        {
          "internalType": "bytes",
          "name": "_data",
          "type": "bytes"
        }
      ],
      "name": "safeTransferFrom",
      "outputs": [],
      "stateMutability": "nonpayable",
      "type": "function"
    },
    {
      "inputs": [
        {
          "internalType": "address",
          "name": "operator",
          "type": "address"
        },
        {
          "internalType": "bool",
          "name": "approved",
          "type": "bool"
        }
      ],
      "name": "setApprovalForAll",
      "outputs": [],
      "stateMutability": "nonpayable",
      "type": "function"
    },
    {
      "inputs": [
        {
          "internalType": "string",
          "name": "_newBaseUrl",
          "type": "string"
        }
      ],
      "name": "setBaseUrl",
      "outputs": [],
      "stateMutability": "nonpayable",
      "type": "function"
    },
    {
      "inputs": [
        {
          "internalType": "bytes4",
          "name": "interfaceId",
          "type": "bytes4"
        }
      ],
      "name": "supportsInterface",
      "outputs": [
        {
          "internalType": "bool",
          "name": "",
          "type": "bool"
        }
      ],
      "stateMutability": "view",
      "type": "function"
    },
    {
      "inputs": [],
      "name": "symbol",
      "outputs": [
        {
          "internalType": "string",
          "name": "",
          "type": "string"
        }
      ],
      "stateMutability": "view",
      "type": "function"
    },
    {
      "inputs": [
        {
          "internalType": "uint256",
          "name": "tokenId",
          "type": "uint256"
        }
      ],
      "name": "tokenURI",
      "outputs": [
        {
          "internalType": "string",
          "name": "",
          "type": "string"
        }
      ],
      "stateMutability": "view",
      "type": "function"
    },
    {
      "inputs": [
        {
          "internalType": "address",
          "name": "from",
          "type": "address"
        },
        {
          "internalType": "address",
          "name": "to",
          "type": "address"
        },
        {
          "internalType": "uint256",
          "name": "tokenId",
          "type": "uint256"
        }
      ],
      "name": "transferFrom",
      "outputs": [],
      "stateMutability": "nonpayable",
      "type": "function"
    },
    {
      "inputs": [
        {
          "internalType": "address",
          "name": "newOwner",
          "type": "address"
        }
      ],
      "name": "transferOwnership",
      "outputs": [],
      "stateMutability": "nonpayable",
      "type": "function"
    }
  ],
  "transactionHash": "0xddd2393c5eb36cbc44c8cf2f76e4e04f166ca8cf7035f3471998c082775812a7",
  "args": [
    "example.com"
  ],
  "solcInputHash": "d7f5174f550071df2f2cfccc4d12b9af",
  "bytecode": "0x60806040523480156200001157600080fd5b506040516200419b3803806200419b833981810160405281019062000037919062000432565b6040518060400160405280600e81526020017f4574686368696576656d656e74730000000000000000000000000000000000008152506040518060400160405280600481526020017f454d4e54000000000000000000000000000000000000000000000000000000008152508160009080519060200190620000bb929190620001e5565b508060019080519060200190620000d4929190620001e5565b505050620000f7620000eb6200011760201b60201c565b6200011f60201b60201c565b80600890805190602001906200010f929190620001e5565b5050620004e8565b600033905090565b6000600760009054906101000a900473ffffffffffffffffffffffffffffffffffffffff16905081600760006101000a81548173ffffffffffffffffffffffffffffffffffffffff021916908373ffffffffffffffffffffffffffffffffffffffff1602179055508173ffffffffffffffffffffffffffffffffffffffff168173ffffffffffffffffffffffffffffffffffffffff167f8be0079c531659141344cd1fd0a4f28419497f9722a3daafe3b4186f6b6457e060405160405180910390a35050565b828054620001f390620004b2565b90600052602060002090601f01602090048101928262000217576000855562000263565b82601f106200023257805160ff191683800117855562000263565b8280016001018555821562000263579182015b828111156200026257825182559160200191906001019062000245565b5b50905062000272919062000276565b5090565b5b808211156200029157600081600090555060010162000277565b5090565b6000604051905090565b600080fd5b600080fd5b600080fd5b600080fd5b6000601f19601f8301169050919050565b7f4e487b7100000000000000000000000000000000000000000000000000000000600052604160045260246000fd5b620002fe82620002b3565b810181811067ffffffffffffffff8211171562000320576200031f620002c4565b5b80604052505050565b60006200033562000295565b9050620003438282620002f3565b919050565b600067ffffffffffffffff821115620003665762000365620002c4565b5b6200037182620002b3565b9050602081019050919050565b60005b838110156200039e57808201518184015260208101905062000381565b83811115620003ae576000848401525b50505050565b6000620003cb620003c58462000348565b62000329565b905082815260208101848484011115620003ea57620003e9620002ae565b5b620003f78482856200037e565b509392505050565b600082601f830112620004175762000416620002a9565b5b815162000429848260208601620003b4565b91505092915050565b6000602082840312156200044b576200044a6200029f565b5b600082015167ffffffffffffffff8111156200046c576200046b620002a4565b5b6200047a84828501620003ff565b91505092915050565b7f4e487b7100000000000000000000000000000000000000000000000000000000600052602260045260246000fd5b60006002820490506001821680620004cb57607f821691505b60208210811415620004e257620004e162000483565b5b50919050565b613ca380620004f86000396000f3fe608060405234801561001057600080fd5b506004361061012c5760003560e01c80638da5cb5b116100ad578063c7c3268b11610071578063c7c3268b1461031b578063c87b56dd14610337578063e00dd16114610367578063e985e9c514610385578063f2fde38b146103b55761012c565b80638da5cb5b1461028b57806394d008ef146102a957806395d89b41146102c5578063a22cb465146102e3578063b88d4fde146102ff5761012c565b806342842e0e116100f457806342842e0e146101e75780635bcabf04146102035780636352211e1461022157806370a0823114610251578063715018a6146102815761012c565b806301ffc9a71461013157806306fdde0314610161578063081812fc1461017f578063095ea7b3146101af57806323b872dd146101cb575b600080fd5b61014b600480360381019061014691906122df565b6103d1565b6040516101589190612327565b60405180910390f35b6101696104b3565b60405161017691906123db565b60405180910390f35b61019960048036038101906101949190612433565b610545565b6040516101a691906124a1565b60405180910390f35b6101c960048036038101906101c491906124e8565b6105ca565b005b6101e560048036038101906101e09190612528565b6106e2565b005b61020160048036038101906101fc9190612528565b610742565b005b61020b610762565b60405161021891906123db565b60405180910390f35b61023b60048036038101906102369190612433565b6107f0565b60405161024891906124a1565b60405180910390f35b61026b6004803603810190610266919061257b565b6108a2565b60405161027891906125b7565b60405180910390f35b61028961095a565b005b6102936109e2565b6040516102a091906124a1565b60405180910390f35b6102c360048036038101906102be9190612707565b610a0c565b005b6102cd610a88565b6040516102da91906123db565b60405180910390f35b6102fd60048036038101906102f891906127a2565b610b1a565b005b610319600480360381019061031491906127e2565b610c9b565b005b61033560048036038101906103309190612906565b610cfd565b005b610351600480360381019061034c9190612433565b610d93565b60405161035e91906123db565b60405180910390f35b61036f610ee5565b60405161037c91906125b7565b60405180910390f35b61039f600480360381019061039a919061294f565b610eeb565b6040516103ac9190612327565b60405180910390f35b6103cf60048036038101906103ca919061257b565b610f7f565b005b60007f80ac58cd000000000000000000000000000000000000000000000000000000007bffffffffffffffffffffffffffffffffffffffffffffffffffffffff1916827bffffffffffffffffffffffffffffffffffffffffffffffffffffffff1916148061049c57507f5b5e139f000000000000000000000000000000000000000000000000000000007bffffffffffffffffffffffffffffffffffffffffffffffffffffffff1916827bffffffffffffffffffffffffffffffffffffffffffffffffffffffff1916145b806104ac57506104ab82611077565b5b9050919050565b6060600080546104c2906129be565b80601f01602080910402602001604051908101604052809291908181526020018280546104ee906129be565b801561053b5780601f106105105761010080835404028352916020019161053b565b820191906000526020600020905b81548152906001019060200180831161051e57829003601f168201915b5050505050905090565b6000610550826110e1565b61058f576040517f08c379a000000000000000000000000000000000000000000000000000000000815260040161058690612a62565b60405180910390fd5b6004600083815260200190815260200160002060009054906101000a900473ffffffffffffffffffffffffffffffffffffffff169050919050565b60006105d5826107f0565b90508073ffffffffffffffffffffffffffffffffffffffff168373ffffffffffffffffffffffffffffffffffffffff161415610646576040517f08c379a000000000000000000000000000000000000000000000000000000000815260040161063d90612af4565b60405180910390fd5b8073ffffffffffffffffffffffffffffffffffffffff1661066561114d565b73ffffffffffffffffffffffffffffffffffffffff16148061069457506106938161068e61114d565b610eeb565b5b6106d3576040517f08c379a00000000000000000000000000000000000000000000000000000000081526004016106ca90612b86565b60405180910390fd5b6106dd8383611155565b505050565b6106f36106ed61114d565b8261120e565b610732576040517f08c379a000000000000000000000000000000000000000000000000000000000815260040161072990612c18565b60405180910390fd5b61073d8383836112ec565b505050565b61075d83838360405180602001604052806000815250610c9b565b505050565b6008805461076f906129be565b80601f016020809104026020016040519081016040528092919081815260200182805461079b906129be565b80156107e85780601f106107bd576101008083540402835291602001916107e8565b820191906000526020600020905b8154815290600101906020018083116107cb57829003601f168201915b505050505081565b6000806002600084815260200190815260200160002060009054906101000a900473ffffffffffffffffffffffffffffffffffffffff169050600073ffffffffffffffffffffffffffffffffffffffff168173ffffffffffffffffffffffffffffffffffffffff161415610899576040517f08c379a000000000000000000000000000000000000000000000000000000000815260040161089090612caa565b60405180910390fd5b80915050919050565b60008073ffffffffffffffffffffffffffffffffffffffff168273ffffffffffffffffffffffffffffffffffffffff161415610913576040517f08c379a000000000000000000000000000000000000000000000000000000000815260040161090a90612d3c565b60405180910390fd5b600360008373ffffffffffffffffffffffffffffffffffffffff1673ffffffffffffffffffffffffffffffffffffffff168152602001908152602001600020549050919050565b61096261114d565b73ffffffffffffffffffffffffffffffffffffffff166109806109e2565b73ffffffffffffffffffffffffffffffffffffffff16146109d6576040517f08c379a00000000000000000000000000000000000000000000000000000000081526004016109cd90612da8565b60405180910390fd5b6109e06000611548565b565b6000600760009054906101000a900473ffffffffffffffffffffffffffffffffffffffff16905090565b610a1783838361160e565b610a238360095461175a565b60006008610a3084611928565b610a3b600954611928565b604051602001610a4d93929190612ee4565b6040516020818303038152906040529050610a6a60095482611a89565b60096000815480929190610a7d90612f5a565b919050555050505050565b606060018054610a97906129be565b80601f0160208091040260200160405190810160405280929190818152602001828054610ac3906129be565b8015610b105780601f10610ae557610100808354040283529160200191610b10565b820191906000526020600020905b815481529060010190602001808311610af357829003601f168201915b5050505050905090565b610b2261114d565b73ffffffffffffffffffffffffffffffffffffffff168273ffffffffffffffffffffffffffffffffffffffff161415610b90576040517f08c379a0000000000000000000000000000000000000000000000000000000008152600401610b8790612fef565b60405180910390fd5b8060056000610b9d61114d565b73ffffffffffffffffffffffffffffffffffffffff1673ffffffffffffffffffffffffffffffffffffffff16815260200190815260200160002060008473ffffffffffffffffffffffffffffffffffffffff1673ffffffffffffffffffffffffffffffffffffffff16815260200190815260200160002060006101000a81548160ff0219169083151502179055508173ffffffffffffffffffffffffffffffffffffffff16610c4a61114d565b73ffffffffffffffffffffffffffffffffffffffff167f17307eab39ab6107e8899845ad3d59bd9653f200f220920489ca2b5937696c3183604051610c8f9190612327565b60405180910390a35050565b610cac610ca661114d565b8361120e565b610ceb576040517f08c379a0000000000000000000000000000000000000000000000000000000008152600401610ce290612c18565b60405180910390fd5b610cf784848484611afd565b50505050565b610d0561114d565b73ffffffffffffffffffffffffffffffffffffffff16610d236109e2565b73ffffffffffffffffffffffffffffffffffffffff1614610d79576040517f08c379a0000000000000000000000000000000000000000000000000000000008152600401610d7090612da8565b60405180910390fd5b8060089080519060200190610d8f9291906121d0565b5050565b6060610d9e826110e1565b610ddd576040517f08c379a0000000000000000000000000000000000000000000000000000000008152600401610dd490613081565b60405180910390fd5b6000600660008481526020019081526020016000208054610dfd906129be565b80601f0160208091040260200160405190810160405280929190818152602001828054610e29906129be565b8015610e765780601f10610e4b57610100808354040283529160200191610e76565b820191906000526020600020905b815481529060010190602001808311610e5957829003601f168201915b505050505090506000610e87611b59565b9050600081511415610e9d578192505050610ee0565b600082511115610ed2578082604051602001610eba9291906130a1565b60405160208183030381529060405292505050610ee0565b610edb84611b70565b925050505b919050565b60095481565b6000600560008473ffffffffffffffffffffffffffffffffffffffff1673ffffffffffffffffffffffffffffffffffffffff16815260200190815260200160002060008373ffffffffffffffffffffffffffffffffffffffff1673ffffffffffffffffffffffffffffffffffffffff16815260200190815260200160002060009054906101000a900460ff16905092915050565b610f8761114d565b73ffffffffffffffffffffffffffffffffffffffff16610fa56109e2565b73ffffffffffffffffffffffffffffffffffffffff1614610ffb576040517f08c379a0000000000000000000000000000000000000000000000000000000008152600401610ff290612da8565b60405180910390fd5b600073ffffffffffffffffffffffffffffffffffffffff168173ffffffffffffffffffffffffffffffffffffffff16141561106b576040517f08c379a000000000000000000000000000000000000000000000000000000000815260040161106290613137565b60405180910390fd5b61107481611548565b50565b60007f01ffc9a7000000000000000000000000000000000000000000000000000000007bffffffffffffffffffffffffffffffffffffffffffffffffffffffff1916827bffffffffffffffffffffffffffffffffffffffffffffffffffffffff1916149050919050565b60008073ffffffffffffffffffffffffffffffffffffffff166002600084815260200190815260200160002060009054906101000a900473ffffffffffffffffffffffffffffffffffffffff1673ffffffffffffffffffffffffffffffffffffffff1614159050919050565b600033905090565b816004600083815260200190815260200160002060006101000a81548173ffffffffffffffffffffffffffffffffffffffff021916908373ffffffffffffffffffffffffffffffffffffffff160217905550808273ffffffffffffffffffffffffffffffffffffffff166111c8836107f0565b73ffffffffffffffffffffffffffffffffffffffff167f8c5be1e5ebec7d5bd14f71427d1e84f3dd0314c0f7b2291e5b200ac8c7c3b92560405160405180910390a45050565b6000611219826110e1565b611258576040517f08c379a000000000000000000000000000000000000000000000000000000000815260040161124f906131c9565b60405180910390fd5b6000611263836107f0565b90508073ffffffffffffffffffffffffffffffffffffffff168473ffffffffffffffffffffffffffffffffffffffff1614806112d257508373ffffffffffffffffffffffffffffffffffffffff166112ba84610545565b73ffffffffffffffffffffffffffffffffffffffff16145b806112e357506112e28185610eeb565b5b91505092915050565b8273ffffffffffffffffffffffffffffffffffffffff1661130c826107f0565b73ffffffffffffffffffffffffffffffffffffffff1614611362576040517f08c379a00000000000000000000000000000000000000000000000000000000081526004016113599061325b565b60405180910390fd5b600073ffffffffffffffffffffffffffffffffffffffff168273ffffffffffffffffffffffffffffffffffffffff1614156113d2576040517f08c379a00000000000000000000000000000000000000000000000000000000081526004016113c9906132ed565b60405180910390fd5b6113dd838383611c17565b6113e8600082611155565b6001600360008573ffffffffffffffffffffffffffffffffffffffff1673ffffffffffffffffffffffffffffffffffffffff1681526020019081526020016000206000828254611438919061330d565b925050819055506001600360008473ffffffffffffffffffffffffffffffffffffffff1673ffffffffffffffffffffffffffffffffffffffff168152602001908152602001600020600082825461148f9190613341565b92505081905550816002600083815260200190815260200160002060006101000a81548173ffffffffffffffffffffffffffffffffffffffff021916908373ffffffffffffffffffffffffffffffffffffffff160217905550808273ffffffffffffffffffffffffffffffffffffffff168473ffffffffffffffffffffffffffffffffffffffff167fddf252ad1be2c89b69c2b068fc378daa952ba7f163c4a11628f55a4df523b3ef60405160405180910390a4505050565b6000600760009054906101000a900473ffffffffffffffffffffffffffffffffffffffff16905081600760006101000a81548173ffffffffffffffffffffffffffffffffffffffff021916908373ffffffffffffffffffffffffffffffffffffffff1602179055508173ffffffffffffffffffffffffffffffffffffffff168173ffffffffffffffffffffffffffffffffffffffff167f8be0079c531659141344cd1fd0a4f28419497f9722a3daafe3b4186f6b6457e060405160405180910390a35050565b60008383604051602001611623929190613400565b604051602081830303815290604052805190602001209050600a600082815260200190815260200160002060009054906101000a900460ff161561169c576040517f08c379a000000000000000000000000000000000000000000000000000000000815260040161169390613478565b60405180910390fd5b6001600a600083815260200190815260200160002060006101000a81548160ff02191690831515021790555060006116dc6116d683611c1c565b84611c4c565b90506116e66109e2565b73ffffffffffffffffffffffffffffffffffffffff168173ffffffffffffffffffffffffffffffffffffffff1614611753576040517f08c379a000000000000000000000000000000000000000000000000000000000815260040161174a906134e4565b60405180910390fd5b5050505050565b600073ffffffffffffffffffffffffffffffffffffffff168273ffffffffffffffffffffffffffffffffffffffff1614156117ca576040517f08c379a00000000000000000000000000000000000000000000000000000000081526004016117c190613550565b60405180910390fd5b6117d3816110e1565b15611813576040517f08c379a000000000000000000000000000000000000000000000000000000000815260040161180a906135bc565b60405180910390fd5b61181f60008383611c17565b6001600360008473ffffffffffffffffffffffffffffffffffffffff1673ffffffffffffffffffffffffffffffffffffffff168152602001908152602001600020600082825461186f9190613341565b92505081905550816002600083815260200190815260200160002060006101000a81548173ffffffffffffffffffffffffffffffffffffffff021916908373ffffffffffffffffffffffffffffffffffffffff160217905550808273ffffffffffffffffffffffffffffffffffffffff16600073ffffffffffffffffffffffffffffffffffffffff167fddf252ad1be2c89b69c2b068fc378daa952ba7f163c4a11628f55a4df523b3ef60405160405180910390a45050565b60606000821415611970576040518060400160405280600181526020017f30000000000000000000000000000000000000000000000000000000000000008152509050611a84565b600082905060005b600082146119a257808061198b90612f5a565b915050600a8261199b919061360b565b9150611978565b60008167ffffffffffffffff8111156119be576119bd6125dc565b5b6040519080825280601f01601f1916602001820160405280156119f05781602001600182028036833780820191505090505b5090505b60008514611a7d57600182611a09919061330d565b9150600a85611a18919061363c565b6030611a249190613341565b60f81b818381518110611a3a57611a3961366d565b5b60200101907effffffffffffffffffffffffffffffffffffffffffffffffffffffffffffff1916908160001a905350600a85611a76919061360b565b94506119f4565b8093505050505b919050565b611a92826110e1565b611ad1576040517f08c379a0000000000000000000000000000000000000000000000000000000008152600401611ac89061370e565b60405180910390fd5b80600660008481526020019081526020016000209080519060200190611af89291906121d0565b505050565b611b088484846112ec565b611b1484848484611c73565b611b53576040517f08c379a0000000000000000000000000000000000000000000000000000000008152600401611b4a906137a0565b60405180910390fd5b50505050565b606060405180602001604052806000815250905090565b6060611b7b826110e1565b611bba576040517f08c379a0000000000000000000000000000000000000000000000000000000008152600401611bb190613832565b60405180910390fd5b6000611bc4611b59565b90506000815111611be45760405180602001604052806000815250611c0f565b80611bee84611928565b604051602001611bff9291906130a1565b6040516020818303038152906040525b915050919050565b505050565b600081604051602001611c2f91906138c9565b604051602081830303815290604052805190602001209050919050565b6000806000611c5b8585611e0a565b91509150611c6881611e8d565b819250505092915050565b6000611c948473ffffffffffffffffffffffffffffffffffffffff16612062565b15611dfd578373ffffffffffffffffffffffffffffffffffffffff1663150b7a02611cbd61114d565b8786866040518563ffffffff1660e01b8152600401611cdf9493929190613944565b602060405180830381600087803b158015611cf957600080fd5b505af1925050508015611d2a57506040513d601f19601f82011682018060405250810190611d2791906139a5565b60015b611dad573d8060008114611d5a576040519150601f19603f3d011682016040523d82523d6000602084013e611d5f565b606091505b50600081511415611da5576040517f08c379a0000000000000000000000000000000000000000000000000000000008152600401611d9c906137a0565b60405180910390fd5b805181602001fd5b63150b7a0260e01b7bffffffffffffffffffffffffffffffffffffffffffffffffffffffff1916817bffffffffffffffffffffffffffffffffffffffffffffffffffffffff191614915050611e02565b600190505b949350505050565b600080604183511415611e4c5760008060006020860151925060408601519150606086015160001a9050611e4087828585612075565b94509450505050611e86565b604083511415611e7d576000806020850151915060408501519050611e72868383612182565b935093505050611e86565b60006002915091505b9250929050565b60006004811115611ea157611ea06139d2565b5b816004811115611eb457611eb36139d2565b5b1415611ebf5761205f565b60016004811115611ed357611ed26139d2565b5b816004811115611ee657611ee56139d2565b5b1415611f27576040517f08c379a0000000000000000000000000000000000000000000000000000000008152600401611f1e90613a4d565b60405180910390fd5b60026004811115611f3b57611f3a6139d2565b5b816004811115611f4e57611f4d6139d2565b5b1415611f8f576040517f08c379a0000000000000000000000000000000000000000000000000000000008152600401611f8690613ab9565b60405180910390fd5b60036004811115611fa357611fa26139d2565b5b816004811115611fb657611fb56139d2565b5b1415611ff7576040517f08c379a0000000000000000000000000000000000000000000000000000000008152600401611fee90613b4b565b60405180910390fd5b60048081111561200a576120096139d2565b5b81600481111561201d5761201c6139d2565b5b141561205e576040517f08c379a000000000000000000000000000000000000000000000000000000000815260040161205590613bdd565b60405180910390fd5b5b50565b600080823b905060008111915050919050565b6000807f7fffffffffffffffffffffffffffffff5d576e7357a4501ddfe92f46681b20a08360001c11156120b0576000600391509150612179565b601b8560ff16141580156120c85750601c8560ff1614155b156120da576000600491509150612179565b6000600187878787604051600081526020016040526040516120ff9493929190613c28565b6020604051602081039080840390855afa158015612121573d6000803e3d6000fd5b505050602060405103519050600073ffffffffffffffffffffffffffffffffffffffff168173ffffffffffffffffffffffffffffffffffffffff16141561217057600060019250925050612179565b80600092509250505b94509492505050565b6000806000807f7fffffffffffffffffffffffffffffffffffffffffffffffffffffffffffffff85169150601b8560ff1c0190506121c287828885612075565b935093505050935093915050565b8280546121dc906129be565b90600052602060002090601f0160209004810192826121fe5760008555612245565b82601f1061221757805160ff1916838001178555612245565b82800160010185558215612245579182015b82811115612244578251825591602001919060010190612229565b5b5090506122529190612256565b5090565b5b8082111561226f576000816000905550600101612257565b5090565b6000604051905090565b600080fd5b600080fd5b60007fffffffff0000000000000000000000000000000000000000000000000000000082169050919050565b6122bc81612287565b81146122c757600080fd5b50565b6000813590506122d9816122b3565b92915050565b6000602082840312156122f5576122f461227d565b5b6000612303848285016122ca565b91505092915050565b60008115159050919050565b6123218161230c565b82525050565b600060208201905061233c6000830184612318565b92915050565b600081519050919050565b600082825260208201905092915050565b60005b8381101561237c578082015181840152602081019050612361565b8381111561238b576000848401525b50505050565b6000601f19601f8301169050919050565b60006123ad82612342565b6123b7818561234d565b93506123c781856020860161235e565b6123d081612391565b840191505092915050565b600060208201905081810360008301526123f581846123a2565b905092915050565b6000819050919050565b612410816123fd565b811461241b57600080fd5b50565b60008135905061242d81612407565b92915050565b6000602082840312156124495761244861227d565b5b60006124578482850161241e565b91505092915050565b600073ffffffffffffffffffffffffffffffffffffffff82169050919050565b600061248b82612460565b9050919050565b61249b81612480565b82525050565b60006020820190506124b66000830184612492565b92915050565b6124c581612480565b81146124d057600080fd5b50565b6000813590506124e2816124bc565b92915050565b600080604083850312156124ff576124fe61227d565b5b600061250d858286016124d3565b925050602061251e8582860161241e565b9150509250929050565b6000806000606084860312156125415761254061227d565b5b600061254f868287016124d3565b9350506020612560868287016124d3565b92505060406125718682870161241e565b9150509250925092565b6000602082840312156125915761259061227d565b5b600061259f848285016124d3565b91505092915050565b6125b1816123fd565b82525050565b60006020820190506125cc60008301846125a8565b92915050565b600080fd5b600080fd5b7f4e487b7100000000000000000000000000000000000000000000000000000000600052604160045260246000fd5b61261482612391565b810181811067ffffffffffffffff82111715612633576126326125dc565b5b80604052505050565b6000612646612273565b9050612652828261260b565b919050565b600067ffffffffffffffff821115612672576126716125dc565b5b61267b82612391565b9050602081019050919050565b82818337600083830152505050565b60006126aa6126a584612657565b61263c565b9050828152602081018484840111156126c6576126c56125d7565b5b6126d1848285612688565b509392505050565b600082601f8301126126ee576126ed6125d2565b5b81356126fe848260208601612697565b91505092915050565b6000806000606084860312156127205761271f61227d565b5b600061272e868287016124d3565b935050602061273f8682870161241e565b925050604084013567ffffffffffffffff8111156127605761275f612282565b5b61276c868287016126d9565b9150509250925092565b61277f8161230c565b811461278a57600080fd5b50565b60008135905061279c81612776565b92915050565b600080604083850312156127b9576127b861227d565b5b60006127c7858286016124d3565b92505060206127d88582860161278d565b9150509250929050565b600080600080608085870312156127fc576127fb61227d565b5b600061280a878288016124d3565b945050602061281b878288016124d3565b935050604061282c8782880161241e565b925050606085013567ffffffffffffffff81111561284d5761284c612282565b5b612859878288016126d9565b91505092959194509250565b600067ffffffffffffffff8211156128805761287f6125dc565b5b61288982612391565b9050602081019050919050565b60006128a96128a484612865565b61263c565b9050828152602081018484840111156128c5576128c46125d7565b5b6128d0848285612688565b509392505050565b600082601f8301126128ed576128ec6125d2565b5b81356128fd848260208601612896565b91505092915050565b60006020828403121561291c5761291b61227d565b5b600082013567ffffffffffffffff81111561293a57612939612282565b5b612946848285016128d8565b91505092915050565b600080604083850312156129665761296561227d565b5b6000612974858286016124d3565b9250506020612985858286016124d3565b9150509250929050565b7f4e487b7100000000000000000000000000000000000000000000000000000000600052602260045260246000fd5b600060028204905060018216806129d657607f821691505b602082108114156129ea576129e961298f565b5b50919050565b7f4552433732313a20617070726f76656420717565727920666f72206e6f6e657860008201527f697374656e7420746f6b656e0000000000000000000000000000000000000000602082015250565b6000612a4c602c8361234d565b9150612a57826129f0565b604082019050919050565b60006020820190508181036000830152612a7b81612a3f565b9050919050565b7f4552433732313a20617070726f76616c20746f2063757272656e74206f776e6560008201527f7200000000000000000000000000000000000000000000000000000000000000602082015250565b6000612ade60218361234d565b9150612ae982612a82565b604082019050919050565b60006020820190508181036000830152612b0d81612ad1565b9050919050565b7f4552433732313a20617070726f76652063616c6c6572206973206e6f74206f7760008201527f6e6572206e6f7220617070726f76656420666f7220616c6c0000000000000000602082015250565b6000612b7060388361234d565b9150612b7b82612b14565b604082019050919050565b60006020820190508181036000830152612b9f81612b63565b9050919050565b7f4552433732313a207472616e736665722063616c6c6572206973206e6f74206f60008201527f776e6572206e6f7220617070726f766564000000000000000000000000000000602082015250565b6000612c0260318361234d565b9150612c0d82612ba6565b604082019050919050565b60006020820190508181036000830152612c3181612bf5565b9050919050565b7f4552433732313a206f776e657220717565727920666f72206e6f6e657869737460008201527f656e7420746f6b656e0000000000000000000000000000000000000000000000602082015250565b6000612c9460298361234d565b9150612c9f82612c38565b604082019050919050565b60006020820190508181036000830152612cc381612c87565b9050919050565b7f4552433732313a2062616c616e636520717565727920666f7220746865207a6560008201527f726f206164647265737300000000000000000000000000000000000000000000602082015250565b6000612d26602a8361234d565b9150612d3182612cca565b604082019050919050565b60006020820190508181036000830152612d5581612d19565b9050919050565b7f4f776e61626c653a2063616c6c6572206973206e6f7420746865206f776e6572600082015250565b6000612d9260208361234d565b9150612d9d82612d5c565b602082019050919050565b60006020820190508181036000830152612dc181612d85565b9050919050565b600081905092915050565b60008190508160005260206000209050919050565b60008154612df5816129be565b612dff8186612dc8565b94506001821660008114612e1a5760018114612e2b57612e5e565b60ff19831686528186019350612e5e565b612e3485612dd3565b60005b83811015612e5657815481890152600182019150602081019050612e37565b838801955050505b50505092915050565b7f2f00000000000000000000000000000000000000000000000000000000000000600082015250565b6000612e9d600183612dc8565b9150612ea882612e67565b600182019050919050565b6000612ebe82612342565b612ec88185612dc8565b9350612ed881856020860161235e565b80840191505092915050565b6000612ef08286612de8565b9150612efb82612e90565b9150612f078285612eb3565b9150612f1282612e90565b9150612f1e8284612eb3565b9150819050949350505050565b7f4e487b7100000000000000000000000000000000000000000000000000000000600052601160045260246000fd5b6000612f65826123fd565b91507fffffffffffffffffffffffffffffffffffffffffffffffffffffffffffffffff821415612f9857612f97612f2b565b5b600182019050919050565b7f4552433732313a20617070726f766520746f2063616c6c657200000000000000600082015250565b6000612fd960198361234d565b9150612fe482612fa3565b602082019050919050565b6000602082019050818103600083015261300881612fcc565b9050919050565b7f45524337323155524953746f726167653a2055524920717565727920666f722060008201527f6e6f6e6578697374656e7420746f6b656e000000000000000000000000000000602082015250565b600061306b60318361234d565b91506130768261300f565b604082019050919050565b6000602082019050818103600083015261309a8161305e565b9050919050565b60006130ad8285612eb3565b91506130b98284612eb3565b91508190509392505050565b7f4f776e61626c653a206e6577206f776e657220697320746865207a65726f206160008201527f6464726573730000000000000000000000000000000000000000000000000000602082015250565b600061312160268361234d565b915061312c826130c5565b604082019050919050565b6000602082019050818103600083015261315081613114565b9050919050565b7f4552433732313a206f70657261746f7220717565727920666f72206e6f6e657860008201527f697374656e7420746f6b656e0000000000000000000000000000000000000000602082015250565b60006131b3602c8361234d565b91506131be82613157565b604082019050919050565b600060208201905081810360008301526131e2816131a6565b9050919050565b7f4552433732313a207472616e73666572206f6620746f6b656e2074686174206960008201527f73206e6f74206f776e0000000000000000000000000000000000000000000000602082015250565b600061324560298361234d565b9150613250826131e9565b604082019050919050565b6000602082019050818103600083015261327481613238565b9050919050565b7f4552433732313a207472616e7366657220746f20746865207a65726f2061646460008201527f7265737300000000000000000000000000000000000000000000000000000000602082015250565b60006132d760248361234d565b91506132e28261327b565b604082019050919050565b60006020820190508181036000830152613306816132ca565b9050919050565b6000613318826123fd565b9150613323836123fd565b92508282101561333657613335612f2b565b5b828203905092915050565b600061334c826123fd565b9150613357836123fd565b9250827fffffffffffffffffffffffffffffffffffffffffffffffffffffffffffffffff0382111561338c5761338b612f2b565b5b828201905092915050565b60008160601b9050919050565b60006133af82613397565b9050919050565b60006133c1826133a4565b9050919050565b6133d96133d482612480565b6133b6565b82525050565b6000819050919050565b6133fa6133f5826123fd565b6133df565b82525050565b600061340c82856133c8565b60148201915061341c82846133e9565b6020820191508190509392505050565b7f616c7265616479206d696e746564000000000000000000000000000000000000600082015250565b6000613462600e8361234d565b915061346d8261342c565b602082019050919050565b6000602082019050818103600083015261349181613455565b9050919050565b7f696e76616c6964207369676e6174757265000000000000000000000000000000600082015250565b60006134ce60118361234d565b91506134d982613498565b602082019050919050565b600060208201905081810360008301526134fd816134c1565b9050919050565b7f4552433732313a206d696e7420746f20746865207a65726f2061646472657373600082015250565b600061353a60208361234d565b915061354582613504565b602082019050919050565b600060208201905081810360008301526135698161352d565b9050919050565b7f4552433732313a20746f6b656e20616c7265616479206d696e74656400000000600082015250565b60006135a6601c8361234d565b91506135b182613570565b602082019050919050565b600060208201905081810360008301526135d581613599565b9050919050565b7f4e487b7100000000000000000000000000000000000000000000000000000000600052601260045260246000fd5b6000613616826123fd565b9150613621836123fd565b925082613631576136306135dc565b5b828204905092915050565b6000613647826123fd565b9150613652836123fd565b925082613662576136616135dc565b5b828206905092915050565b7f4e487b7100000000000000000000000000000000000000000000000000000000600052603260045260246000fd5b7f45524337323155524953746f726167653a2055524920736574206f66206e6f6e60008201527f6578697374656e7420746f6b656e000000000000000000000000000000000000602082015250565b60006136f8602e8361234d565b91506137038261369c565b604082019050919050565b60006020820190508181036000830152613727816136eb565b9050919050565b7f4552433732313a207472616e7366657220746f206e6f6e20455243373231526560008201527f63656976657220696d706c656d656e7465720000000000000000000000000000602082015250565b600061378a60328361234d565b91506137958261372e565b604082019050919050565b600060208201905081810360008301526137b98161377d565b9050919050565b7f4552433732314d657461646174613a2055524920717565727920666f72206e6f60008201527f6e6578697374656e7420746f6b656e0000000000000000000000000000000000602082015250565b600061381c602f8361234d565b9150613827826137c0565b604082019050919050565b6000602082019050818103600083015261384b8161380f565b9050919050565b7f19457468657265756d205369676e6564204d6573736167653a0a333200000000600082015250565b6000613888601c83612dc8565b915061389382613852565b601c82019050919050565b6000819050919050565b6000819050919050565b6138c36138be8261389e565b6138a8565b82525050565b60006138d48261387b565b91506138e082846138b2565b60208201915081905092915050565b600081519050919050565b600082825260208201905092915050565b6000613916826138ef565b61392081856138fa565b935061393081856020860161235e565b61393981612391565b840191505092915050565b60006080820190506139596000830187612492565b6139666020830186612492565b61397360408301856125a8565b8181036060830152613985818461390b565b905095945050505050565b60008151905061399f816122b3565b92915050565b6000602082840312156139bb576139ba61227d565b5b60006139c984828501613990565b91505092915050565b7f4e487b7100000000000000000000000000000000000000000000000000000000600052602160045260246000fd5b7f45434453413a20696e76616c6964207369676e61747572650000000000000000600082015250565b6000613a3760188361234d565b9150613a4282613a01565b602082019050919050565b60006020820190508181036000830152613a6681613a2a565b9050919050565b7f45434453413a20696e76616c6964207369676e6174757265206c656e67746800600082015250565b6000613aa3601f8361234d565b9150613aae82613a6d565b602082019050919050565b60006020820190508181036000830152613ad281613a96565b9050919050565b7f45434453413a20696e76616c6964207369676e6174757265202773272076616c60008201527f7565000000000000000000000000000000000000000000000000000000000000602082015250565b6000613b3560228361234d565b9150613b4082613ad9565b604082019050919050565b60006020820190508181036000830152613b6481613b28565b9050919050565b7f45434453413a20696e76616c6964207369676e6174757265202776272076616c60008201527f7565000000000000000000000000000000000000000000000000000000000000602082015250565b6000613bc760228361234d565b9150613bd282613b6b565b604082019050919050565b60006020820190508181036000830152613bf681613bba565b9050919050565b613c068161389e565b82525050565b600060ff82169050919050565b613c2281613c0c565b82525050565b6000608082019050613c3d6000830187613bfd565b613c4a6020830186613c19565b613c576040830185613bfd565b613c646060830184613bfd565b9594505050505056fea26469706673582212209aca43cc322247b3997f0a156a2291dc75b5b68e4951c0b042bb307d9316bbe864736f6c63430008090033",
  "devdoc": {
    "author": "Noah Citron",
    "details": "ERC721 contract that permissions minting to require a valid signature from the contract owner.          The tokenURI has also been modified to resolve to baseUrl/integration/task which the Ethchievements          backend will use as a path to store the appropriate NFT image",
    "kind": "dev",
    "methods": {
      "approve(address,uint256)": {
        "details": "See {IERC721-approve}."
      },
      "balanceOf(address)": {
        "details": "See {IERC721-balanceOf}."
      },
      "constructor": {
        "params": {
          "_baseUrl": "the base url of the NFT"
        }
      },
      "getApproved(uint256)": {
        "details": "See {IERC721-getApproved}."
      },
      "isApprovedForAll(address,address)": {
        "details": "See {IERC721-isApprovedForAll}."
      },
      "mint(address,uint256,bytes)": {
        "params": {
          "_achievementId": "the id of tje achievement",
          "_sig": "the eth signed message by the owner of keccak(_to + _achievementId)",
          "_to": "the recipient of the NFT"
        }
      },
      "name()": {
        "details": "See {IERC721Metadata-name}."
      },
      "owner()": {
        "details": "Returns the address of the current owner."
      },
      "ownerOf(uint256)": {
        "details": "See {IERC721-ownerOf}."
      },
      "renounceOwnership()": {
        "details": "Leaves the contract without owner. It will not be possible to call `onlyOwner` functions anymore. Can only be called by the current owner. NOTE: Renouncing ownership will leave the contract without an owner, thereby removing any functionality that is only available to the owner."
      },
      "safeTransferFrom(address,address,uint256)": {
        "details": "See {IERC721-safeTransferFrom}."
      },
      "safeTransferFrom(address,address,uint256,bytes)": {
        "details": "See {IERC721-safeTransferFrom}."
      },
      "setApprovalForAll(address,bool)": {
        "details": "See {IERC721-setApprovalForAll}."
      },
      "supportsInterface(bytes4)": {
        "details": "See {IERC165-supportsInterface}."
      },
      "symbol()": {
        "details": "See {IERC721Metadata-symbol}."
      },
      "tokenURI(uint256)": {
        "details": "See {IERC721Metadata-tokenURI}."
      },
      "transferFrom(address,address,uint256)": {
        "details": "See {IERC721-transferFrom}."
      },
      "transferOwnership(address)": {
        "details": "Transfers ownership of the contract to a new account (`newOwner`). Can only be called by the current owner."
      }
    },
    "title": "Ethchievements",
    "version": 1
  },
  "userdoc": {
    "kind": "user",
    "methods": {
      "constructor": {
        "notice": "Sets the state variables"
      },
      "mint(address,uint256,bytes)": {
        "notice": "Mints a new Ethchievement NFT. In order to mint, must provide a valid singature of the keccak hash of  the minter, integration, and task. This message should be formatted as if it were produced by the eth_signMessage RPC call. Replay attacks are prevented by disallowing multiple mints with the same minter, integration, task combination."
      }
    },
    "version": 1
  },
  "storageLayout": {
    "storage": [
      {
        "astId": 129,
        "contract": "contracts/Ethchievements.sol:Ethchievements",
        "label": "_name",
        "offset": 0,
        "slot": "0",
        "type": "t_string_storage"
      },
      {
        "astId": 131,
        "contract": "contracts/Ethchievements.sol:Ethchievements",
        "label": "_symbol",
        "offset": 0,
        "slot": "1",
        "type": "t_string_storage"
      },
      {
        "astId": 135,
        "contract": "contracts/Ethchievements.sol:Ethchievements",
        "label": "_owners",
        "offset": 0,
        "slot": "2",
        "type": "t_mapping(t_uint256,t_address)"
      },
      {
        "astId": 139,
        "contract": "contracts/Ethchievements.sol:Ethchievements",
        "label": "_balances",
        "offset": 0,
        "slot": "3",
        "type": "t_mapping(t_address,t_uint256)"
      },
      {
        "astId": 143,
        "contract": "contracts/Ethchievements.sol:Ethchievements",
        "label": "_tokenApprovals",
        "offset": 0,
        "slot": "4",
        "type": "t_mapping(t_uint256,t_address)"
      },
      {
        "astId": 149,
        "contract": "contracts/Ethchievements.sol:Ethchievements",
        "label": "_operatorApprovals",
        "offset": 0,
        "slot": "5",
        "type": "t_mapping(t_address,t_mapping(t_address,t_bool))"
      },
      {
        "astId": 1066,
        "contract": "contracts/Ethchievements.sol:Ethchievements",
        "label": "_tokenURIs",
        "offset": 0,
        "slot": "6",
        "type": "t_mapping(t_uint256,t_string_storage)"
      },
      {
        "astId": 7,
        "contract": "contracts/Ethchievements.sol:Ethchievements",
        "label": "_owner",
        "offset": 0,
        "slot": "7",
        "type": "t_address"
      },
      {
        "astId": 2155,
        "contract": "contracts/Ethchievements.sol:Ethchievements",
        "label": "baseUrl",
        "offset": 0,
        "slot": "8",
        "type": "t_string_storage"
      },
      {
        "astId": 2157,
        "contract": "contracts/Ethchievements.sol:Ethchievements",
        "label": "currentId",
        "offset": 0,
        "slot": "9",
        "type": "t_uint256"
      },
      {
        "astId": 2161,
        "contract": "contracts/Ethchievements.sol:Ethchievements",
        "label": "alreadyMinted",
        "offset": 0,
        "slot": "10",
        "type": "t_mapping(t_bytes32,t_bool)"
      }
    ],
    "types": {
      "t_address": {
        "encoding": "inplace",
        "label": "address",
        "numberOfBytes": "20"
      },
      "t_bool": {
        "encoding": "inplace",
        "label": "bool",
        "numberOfBytes": "1"
      },
      "t_bytes32": {
        "encoding": "inplace",
        "label": "bytes32",
        "numberOfBytes": "32"
      },
      "t_mapping(t_address,t_bool)": {
        "encoding": "mapping",
        "key": "t_address",
        "label": "mapping(address => bool)",
        "numberOfBytes": "32",
        "value": "t_bool"
      },
      "t_mapping(t_address,t_mapping(t_address,t_bool))": {
        "encoding": "mapping",
        "key": "t_address",
        "label": "mapping(address => mapping(address => bool))",
        "numberOfBytes": "32",
        "value": "t_mapping(t_address,t_bool)"
      },
      "t_mapping(t_address,t_uint256)": {
        "encoding": "mapping",
        "key": "t_address",
        "label": "mapping(address => uint256)",
        "numberOfBytes": "32",
        "value": "t_uint256"
      },
      "t_mapping(t_bytes32,t_bool)": {
        "encoding": "mapping",
        "key": "t_bytes32",
        "label": "mapping(bytes32 => bool)",
        "numberOfBytes": "32",
        "value": "t_bool"
      },
      "t_mapping(t_uint256,t_address)": {
        "encoding": "mapping",
        "key": "t_uint256",
        "label": "mapping(uint256 => address)",
        "numberOfBytes": "32",
        "value": "t_address"
      },
      "t_mapping(t_uint256,t_string_storage)": {
        "encoding": "mapping",
        "key": "t_uint256",
        "label": "mapping(uint256 => string)",
        "numberOfBytes": "32",
        "value": "t_string_storage"
      },
      "t_string_storage": {
        "encoding": "bytes",
        "label": "string",
        "numberOfBytes": "32"
      },
      "t_uint256": {
        "encoding": "inplace",
        "label": "uint256",
        "numberOfBytes": "32"
      }
    }
  }
}