{
  "address": "0x41d5c164A11a70CB8Ca240eCB4BcA907B2197ED0",
  "abi": [
    {
      "inputs": [
        {
          "internalType": "string",
          "name": "_base",
          "type": "string"
        }
      ],
      "stateMutability": "nonpayable",
      "type": "constructor"
    },
    {
      "anonymous": false,
      "inputs": [
        {
          "indexed": true,
          "internalType": "address",
          "name": "owner",
          "type": "address"
        },
        {
          "indexed": true,
          "internalType": "address",
          "name": "approved",
          "type": "address"
        },
        {
          "indexed": true,
          "internalType": "uint256",
          "name": "tokenId",
          "type": "uint256"
        }
      ],
      "name": "Approval",
      "type": "event"
    },
    {
      "anonymous": false,
      "inputs": [
        {
          "indexed": true,
          "internalType": "address",
          "name": "owner",
          "type": "address"
        },
        {
          "indexed": true,
          "internalType": "address",
          "name": "operator",
          "type": "address"
        },
        {
          "indexed": false,
          "internalType": "bool",
          "name": "approved",
          "type": "bool"
        }
      ],
      "name": "ApprovalForAll",
      "type": "event"
    },
    {
      "anonymous": false,
      "inputs": [
        {
          "indexed": true,
          "internalType": "address",
          "name": "previousOwner",
          "type": "address"
        },
        {
          "indexed": true,
          "internalType": "address",
          "name": "newOwner",
          "type": "address"
        }
      ],
      "name": "OwnershipTransferred",
      "type": "event"
    },
    {
      "anonymous": false,
      "inputs": [
        {
          "indexed": true,
          "internalType": "address",
          "name": "from",
          "type": "address"
        },
        {
          "indexed": true,
          "internalType": "address",
          "name": "to",
          "type": "address"
        },
        {
          "indexed": true,
          "internalType": "uint256",
          "name": "tokenId",
          "type": "uint256"
        }
      ],
      "name": "Transfer",
      "type": "event"
    },
    {
      "inputs": [
        {
          "internalType": "address",
          "name": "to",
          "type": "address"
        },
        {
          "internalType": "uint256",
          "name": "tokenId",
          "type": "uint256"
        }
      ],
      "name": "approve",
      "outputs": [],
      "stateMutability": "nonpayable",
      "type": "function"
    },
    {
      "inputs": [
        {
          "internalType": "address",
          "name": "owner",
          "type": "address"
        }
      ],
      "name": "balanceOf",
      "outputs": [
        {
          "internalType": "uint256",
          "name": "",
          "type": "uint256"
        }
      ],
      "stateMutability": "view",
      "type": "function"
    },
    {
      "inputs": [],
      "name": "base",
      "outputs": [
        {
          "internalType": "string",
          "name": "",
          "type": "string"
        }
      ],
      "stateMutability": "view",
      "type": "function"
    },
    {
      "inputs": [],
      "name": "currentId",
      "outputs": [
        {
          "internalType": "uint256",
          "name": "",
          "type": "uint256"
        }
      ],
      "stateMutability": "view",
      "type": "function"
    },
    {
      "inputs": [
        {
          "internalType": "uint256",
          "name": "tokenId",
          "type": "uint256"
        }
      ],
      "name": "getApproved",
      "outputs": [
        {
          "internalType": "address",
          "name": "",
          "type": "address"
        }
      ],
      "stateMutability": "view",
      "type": "function"
    },
    {
      "inputs": [
        {
          "internalType": "address",
          "name": "owner",
          "type": "address"
        },
        {
          "internalType": "address",
          "name": "operator",
          "type": "address"
        }
      ],
      "name": "isApprovedForAll",
      "outputs": [
        {
          "internalType": "bool",
          "name": "",
          "type": "bool"
        }
      ],
      "stateMutability": "view",
      "type": "function"
    },
    {
      "inputs": [
        {
          "internalType": "address",
          "name": "_to",
          "type": "address"
        },
        {
          "internalType": "string",
          "name": "_integration",
          "type": "string"
        },
        {
          "internalType": "string",
          "name": "_task",
          "type": "string"
        },
        {
          "internalType": "bytes",
          "name": "_sig",
          "type": "bytes"
        }
      ],
      "name": "mint",
      "outputs": [],
      "stateMutability": "nonpayable",
      "type": "function"
    },
    {
      "inputs": [],
      "name": "name",
      "outputs": [
        {
          "internalType": "string",
          "name": "",
          "type": "string"
        }
      ],
      "stateMutability": "view",
      "type": "function"
    },
    {
      "inputs": [],
      "name": "owner",
      "outputs": [
        {
          "internalType": "address",
          "name": "",
          "type": "address"
        }
      ],
      "stateMutability": "view",
      "type": "function"
    },
    {
      "inputs": [
        {
          "internalType": "uint256",
          "name": "tokenId",
          "type": "uint256"
        }
      ],
      "name": "ownerOf",
      "outputs": [
        {
          "internalType": "address",
          "name": "",
          "type": "address"
        }
      ],
      "stateMutability": "view",
      "type": "function"
    },
    {
      "inputs": [],
      "name": "renounceOwnership",
      "outputs": [],
      "stateMutability": "nonpayable",
      "type": "function"
    },
    {
      "inputs": [
        {
          "internalType": "address",
          "name": "from",
          "type": "address"
        },
        {
          "internalType": "address",
          "name": "to",
          "type": "address"
        },
        {
          "internalType": "uint256",
          "name": "tokenId",
          "type": "uint256"
        }
      ],
      "name": "safeTransferFrom",
      "outputs": [],
      "stateMutability": "nonpayable",
      "type": "function"
    },
    {
      "inputs": [
        {
          "internalType": "address",
          "name": "from",
          "type": "address"
        },
        {
          "internalType": "address",
          "name": "to",
          "type": "address"
        },
        {
          "internalType": "uint256",
          "name": "tokenId",
          "type": "uint256"
        },
        {
          "internalType": "bytes",
          "name": "_data",
          "type": "bytes"
        }
      ],
      "name": "safeTransferFrom",
      "outputs": [],
      "stateMutability": "nonpayable",
      "type": "function"
    },
    {
      "inputs": [
        {
          "internalType": "address",
          "name": "operator",
          "type": "address"
        },
        {
          "internalType": "bool",
          "name": "approved",
          "type": "bool"
        }
      ],
      "name": "setApprovalForAll",
      "outputs": [],
      "stateMutability": "nonpayable",
      "type": "function"
    },
    {
      "inputs": [
        {
          "internalType": "bytes4",
          "name": "interfaceId",
          "type": "bytes4"
        }
      ],
      "name": "supportsInterface",
      "outputs": [
        {
          "internalType": "bool",
          "name": "",
          "type": "bool"
        }
      ],
      "stateMutability": "view",
      "type": "function"
    },
    {
      "inputs": [],
      "name": "symbol",
      "outputs": [
        {
          "internalType": "string",
          "name": "",
          "type": "string"
        }
      ],
      "stateMutability": "view",
      "type": "function"
    },
    {
      "inputs": [
        {
          "internalType": "uint256",
          "name": "tokenId",
          "type": "uint256"
        }
      ],
      "name": "tokenURI",
      "outputs": [
        {
          "internalType": "string",
          "name": "",
          "type": "string"
        }
      ],
      "stateMutability": "view",
      "type": "function"
    },
    {
      "inputs": [
        {
          "internalType": "address",
          "name": "from",
          "type": "address"
        },
        {
          "internalType": "address",
          "name": "to",
          "type": "address"
        },
        {
          "internalType": "uint256",
          "name": "tokenId",
          "type": "uint256"
        }
      ],
      "name": "transferFrom",
      "outputs": [],
      "stateMutability": "nonpayable",
      "type": "function"
    },
    {
      "inputs": [
        {
          "internalType": "address",
          "name": "newOwner",
          "type": "address"
        }
      ],
      "name": "transferOwnership",
      "outputs": [],
      "stateMutability": "nonpayable",
      "type": "function"
    }
  ],
  "transactionHash": "0xc93853ad899775f7ae6bfd8f7a9226cd68067cd0c88b7d1df21cdf8367cf3a7f",
  "args": [
    "example.com"
  ],
  "solcInputHash": "977c5cc899bb537cbecdaef9c92c9dfa",
  "bytecode": "0x60806040523480156200001157600080fd5b50604051620040bc380380620040bc833981810160405281019062000037919062000432565b6040518060400160405280600e81526020017f4574686368696576656d656e74730000000000000000000000000000000000008152506040518060400160405280600481526020017f454d4e54000000000000000000000000000000000000000000000000000000008152508160009080519060200190620000bb929190620001e5565b508060019080519060200190620000d4929190620001e5565b505050620000f7620000eb6200011760201b60201c565b6200011f60201b60201c565b80600890805190602001906200010f929190620001e5565b5050620004e8565b600033905090565b6000600760009054906101000a900473ffffffffffffffffffffffffffffffffffffffff16905081600760006101000a81548173ffffffffffffffffffffffffffffffffffffffff021916908373ffffffffffffffffffffffffffffffffffffffff1602179055508173ffffffffffffffffffffffffffffffffffffffff168173ffffffffffffffffffffffffffffffffffffffff167f8be0079c531659141344cd1fd0a4f28419497f9722a3daafe3b4186f6b6457e060405160405180910390a35050565b828054620001f390620004b2565b90600052602060002090601f01602090048101928262000217576000855562000263565b82601f106200023257805160ff191683800117855562000263565b8280016001018555821562000263579182015b828111156200026257825182559160200191906001019062000245565b5b50905062000272919062000276565b5090565b5b808211156200029157600081600090555060010162000277565b5090565b6000604051905090565b600080fd5b600080fd5b600080fd5b600080fd5b6000601f19601f8301169050919050565b7f4e487b7100000000000000000000000000000000000000000000000000000000600052604160045260246000fd5b620002fe82620002b3565b810181811067ffffffffffffffff8211171562000320576200031f620002c4565b5b80604052505050565b60006200033562000295565b9050620003438282620002f3565b919050565b600067ffffffffffffffff821115620003665762000365620002c4565b5b6200037182620002b3565b9050602081019050919050565b60005b838110156200039e57808201518184015260208101905062000381565b83811115620003ae576000848401525b50505050565b6000620003cb620003c58462000348565b62000329565b905082815260208101848484011115620003ea57620003e9620002ae565b5b620003f78482856200037e565b509392505050565b600082601f830112620004175762000416620002a9565b5b815162000429848260208601620003b4565b91505092915050565b6000602082840312156200044b576200044a6200029f565b5b600082015167ffffffffffffffff8111156200046c576200046b620002a4565b5b6200047a84828501620003ff565b91505092915050565b7f4e487b7100000000000000000000000000000000000000000000000000000000600052602260045260246000fd5b60006002820490506001821680620004cb57607f821691505b60208210811415620004e257620004e162000483565b5b50919050565b613bc480620004f86000396000f3fe608060405234801561001057600080fd5b50600436106101215760003560e01c8063715018a6116100ad578063b88d4fde11610071578063b88d4fde146102f4578063c87b56dd14610310578063e00dd16114610340578063e985e9c51461035e578063f2fde38b1461038e57610121565b8063715018a6146102765780638da5cb5b1461028057806395d89b411461029e578063a22cb465146102bc578063acbcd039146102d857610121565b806323b872dd116100f457806323b872dd146101c057806342842e0e146101dc5780635001f3b5146101f85780636352211e1461021657806370a082311461024657610121565b806301ffc9a71461012657806306fdde0314610156578063081812fc14610174578063095ea7b3146101a4575b600080fd5b610140600480360381019061013b9190612215565b6103aa565b60405161014d919061225d565b60405180910390f35b61015e61048c565b60405161016b9190612311565b60405180910390f35b61018e60048036038101906101899190612369565b61051e565b60405161019b91906123d7565b60405180910390f35b6101be60048036038101906101b9919061241e565b6105a3565b005b6101da60048036038101906101d5919061245e565b6106bb565b005b6101f660048036038101906101f1919061245e565b61071b565b005b61020061073b565b60405161020d9190612311565b60405180910390f35b610230600480360381019061022b9190612369565b6107c9565b60405161023d91906123d7565b60405180910390f35b610260600480360381019061025b91906124b1565b61087b565b60405161026d91906124ed565b60405180910390f35b61027e610933565b005b6102886109bb565b60405161029591906123d7565b60405180910390f35b6102a66109e5565b6040516102b39190612311565b60405180910390f35b6102d660048036038101906102d19190612534565b610a77565b005b6102f260048036038101906102ed919061274a565b610bf8565b005b61030e60048036038101906103099190612805565b610c64565b005b61032a60048036038101906103259190612369565b610cc6565b6040516103379190612311565b60405180910390f35b610348610e18565b60405161035591906124ed565b60405180910390f35b61037860048036038101906103739190612888565b610e1e565b604051610385919061225d565b60405180910390f35b6103a860048036038101906103a391906124b1565b610eb2565b005b60007f80ac58cd000000000000000000000000000000000000000000000000000000007bffffffffffffffffffffffffffffffffffffffffffffffffffffffff1916827bffffffffffffffffffffffffffffffffffffffffffffffffffffffff1916148061047557507f5b5e139f000000000000000000000000000000000000000000000000000000007bffffffffffffffffffffffffffffffffffffffffffffffffffffffff1916827bffffffffffffffffffffffffffffffffffffffffffffffffffffffff1916145b80610485575061048482610faa565b5b9050919050565b60606000805461049b906128f7565b80601f01602080910402602001604051908101604052809291908181526020018280546104c7906128f7565b80156105145780601f106104e957610100808354040283529160200191610514565b820191906000526020600020905b8154815290600101906020018083116104f757829003601f168201915b5050505050905090565b600061052982611014565b610568576040517f08c379a000000000000000000000000000000000000000000000000000000000815260040161055f9061299b565b60405180910390fd5b6004600083815260200190815260200160002060009054906101000a900473ffffffffffffffffffffffffffffffffffffffff169050919050565b60006105ae826107c9565b90508073ffffffffffffffffffffffffffffffffffffffff168373ffffffffffffffffffffffffffffffffffffffff16141561061f576040517f08c379a000000000000000000000000000000000000000000000000000000000815260040161061690612a2d565b60405180910390fd5b8073ffffffffffffffffffffffffffffffffffffffff1661063e611080565b73ffffffffffffffffffffffffffffffffffffffff16148061066d575061066c81610667611080565b610e1e565b5b6106ac576040517f08c379a00000000000000000000000000000000000000000000000000000000081526004016106a390612abf565b60405180910390fd5b6106b68383611088565b505050565b6106cc6106c6611080565b82611141565b61070b576040517f08c379a000000000000000000000000000000000000000000000000000000000815260040161070290612b51565b60405180910390fd5b61071683838361121f565b505050565b61073683838360405180602001604052806000815250610c64565b505050565b60088054610748906128f7565b80601f0160208091040260200160405190810160405280929190818152602001828054610774906128f7565b80156107c15780601f10610796576101008083540402835291602001916107c1565b820191906000526020600020905b8154815290600101906020018083116107a457829003601f168201915b505050505081565b6000806002600084815260200190815260200160002060009054906101000a900473ffffffffffffffffffffffffffffffffffffffff169050600073ffffffffffffffffffffffffffffffffffffffff168173ffffffffffffffffffffffffffffffffffffffff161415610872576040517f08c379a000000000000000000000000000000000000000000000000000000000815260040161086990612be3565b60405180910390fd5b80915050919050565b60008073ffffffffffffffffffffffffffffffffffffffff168273ffffffffffffffffffffffffffffffffffffffff1614156108ec576040517f08c379a00000000000000000000000000000000000000000000000000000000081526004016108e390612c75565b60405180910390fd5b600360008373ffffffffffffffffffffffffffffffffffffffff1673ffffffffffffffffffffffffffffffffffffffff168152602001908152602001600020549050919050565b61093b611080565b73ffffffffffffffffffffffffffffffffffffffff166109596109bb565b73ffffffffffffffffffffffffffffffffffffffff16146109af576040517f08c379a00000000000000000000000000000000000000000000000000000000081526004016109a690612ce1565b60405180910390fd5b6109b9600061147b565b565b6000600760009054906101000a900473ffffffffffffffffffffffffffffffffffffffff16905090565b6060600180546109f4906128f7565b80601f0160208091040260200160405190810160405280929190818152602001828054610a20906128f7565b8015610a6d5780601f10610a4257610100808354040283529160200191610a6d565b820191906000526020600020905b815481529060010190602001808311610a5057829003601f168201915b5050505050905090565b610a7f611080565b73ffffffffffffffffffffffffffffffffffffffff168273ffffffffffffffffffffffffffffffffffffffff161415610aed576040517f08c379a0000000000000000000000000000000000000000000000000000000008152600401610ae490612d4d565b60405180910390fd5b8060056000610afa611080565b73ffffffffffffffffffffffffffffffffffffffff1673ffffffffffffffffffffffffffffffffffffffff16815260200190815260200160002060008473ffffffffffffffffffffffffffffffffffffffff1673ffffffffffffffffffffffffffffffffffffffff16815260200190815260200160002060006101000a81548160ff0219169083151502179055508173ffffffffffffffffffffffffffffffffffffffff16610ba7611080565b73ffffffffffffffffffffffffffffffffffffffff167f17307eab39ab6107e8899845ad3d59bd9653f200f220920489ca2b5937696c3183604051610bec919061225d565b60405180910390a35050565b610c0484848484611541565b610c1084600954611690565b600060088484604051602001610c2893929190612e89565b6040516020818303038152906040529050610c456009548261185e565b60096000815480929190610c5890612eff565b91905055505050505050565b610c75610c6f611080565b83611141565b610cb4576040517f08c379a0000000000000000000000000000000000000000000000000000000008152600401610cab90612b51565b60405180910390fd5b610cc0848484846118d2565b50505050565b6060610cd182611014565b610d10576040517f08c379a0000000000000000000000000000000000000000000000000000000008152600401610d0790612fba565b60405180910390fd5b6000600660008481526020019081526020016000208054610d30906128f7565b80601f0160208091040260200160405190810160405280929190818152602001828054610d5c906128f7565b8015610da95780601f10610d7e57610100808354040283529160200191610da9565b820191906000526020600020905b815481529060010190602001808311610d8c57829003601f168201915b505050505090506000610dba61192e565b9050600081511415610dd0578192505050610e13565b600082511115610e05578082604051602001610ded929190612fda565b60405160208183030381529060405292505050610e13565b610e0e84611945565b925050505b919050565b60095481565b6000600560008473ffffffffffffffffffffffffffffffffffffffff1673ffffffffffffffffffffffffffffffffffffffff16815260200190815260200160002060008373ffffffffffffffffffffffffffffffffffffffff1673ffffffffffffffffffffffffffffffffffffffff16815260200190815260200160002060009054906101000a900460ff16905092915050565b610eba611080565b73ffffffffffffffffffffffffffffffffffffffff16610ed86109bb565b73ffffffffffffffffffffffffffffffffffffffff1614610f2e576040517f08c379a0000000000000000000000000000000000000000000000000000000008152600401610f2590612ce1565b60405180910390fd5b600073ffffffffffffffffffffffffffffffffffffffff168173ffffffffffffffffffffffffffffffffffffffff161415610f9e576040517f08c379a0000000000000000000000000000000000000000000000000000000008152600401610f9590613070565b60405180910390fd5b610fa78161147b565b50565b60007f01ffc9a7000000000000000000000000000000000000000000000000000000007bffffffffffffffffffffffffffffffffffffffffffffffffffffffff1916827bffffffffffffffffffffffffffffffffffffffffffffffffffffffff1916149050919050565b60008073ffffffffffffffffffffffffffffffffffffffff166002600084815260200190815260200160002060009054906101000a900473ffffffffffffffffffffffffffffffffffffffff1673ffffffffffffffffffffffffffffffffffffffff1614159050919050565b600033905090565b816004600083815260200190815260200160002060006101000a81548173ffffffffffffffffffffffffffffffffffffffff021916908373ffffffffffffffffffffffffffffffffffffffff160217905550808273ffffffffffffffffffffffffffffffffffffffff166110fb836107c9565b73ffffffffffffffffffffffffffffffffffffffff167f8c5be1e5ebec7d5bd14f71427d1e84f3dd0314c0f7b2291e5b200ac8c7c3b92560405160405180910390a45050565b600061114c82611014565b61118b576040517f08c379a000000000000000000000000000000000000000000000000000000000815260040161118290613102565b60405180910390fd5b6000611196836107c9565b90508073ffffffffffffffffffffffffffffffffffffffff168473ffffffffffffffffffffffffffffffffffffffff16148061120557508373ffffffffffffffffffffffffffffffffffffffff166111ed8461051e565b73ffffffffffffffffffffffffffffffffffffffff16145b8061121657506112158185610e1e565b5b91505092915050565b8273ffffffffffffffffffffffffffffffffffffffff1661123f826107c9565b73ffffffffffffffffffffffffffffffffffffffff1614611295576040517f08c379a000000000000000000000000000000000000000000000000000000000815260040161128c90613194565b60405180910390fd5b600073ffffffffffffffffffffffffffffffffffffffff168273ffffffffffffffffffffffffffffffffffffffff161415611305576040517f08c379a00000000000000000000000000000000000000000000000000000000081526004016112fc90613226565b60405180910390fd5b6113108383836119ec565b61131b600082611088565b6001600360008573ffffffffffffffffffffffffffffffffffffffff1673ffffffffffffffffffffffffffffffffffffffff168152602001908152602001600020600082825461136b9190613246565b925050819055506001600360008473ffffffffffffffffffffffffffffffffffffffff1673ffffffffffffffffffffffffffffffffffffffff16815260200190815260200160002060008282546113c2919061327a565b92505081905550816002600083815260200190815260200160002060006101000a81548173ffffffffffffffffffffffffffffffffffffffff021916908373ffffffffffffffffffffffffffffffffffffffff160217905550808273ffffffffffffffffffffffffffffffffffffffff168473ffffffffffffffffffffffffffffffffffffffff167fddf252ad1be2c89b69c2b068fc378daa952ba7f163c4a11628f55a4df523b3ef60405160405180910390a4505050565b6000600760009054906101000a900473ffffffffffffffffffffffffffffffffffffffff16905081600760006101000a81548173ffffffffffffffffffffffffffffffffffffffff021916908373ffffffffffffffffffffffffffffffffffffffff1602179055508173ffffffffffffffffffffffffffffffffffffffff168173ffffffffffffffffffffffffffffffffffffffff167f8be0079c531659141344cd1fd0a4f28419497f9722a3daafe3b4186f6b6457e060405160405180910390a35050565b600084848460405160200161155893929190613318565b604051602081830303815290604052805190602001209050600a600082815260200190815260200160002060009054906101000a900460ff16156115d1576040517f08c379a00000000000000000000000000000000000000000000000000000000081526004016115c890613399565b60405180910390fd5b6001600a600083815260200190815260200160002060006101000a81548160ff021916908315150217905550600061161161160b836119f1565b84611a21565b905061161b6109bb565b73ffffffffffffffffffffffffffffffffffffffff168173ffffffffffffffffffffffffffffffffffffffff1614611688576040517f08c379a000000000000000000000000000000000000000000000000000000000815260040161167f90613405565b60405180910390fd5b505050505050565b600073ffffffffffffffffffffffffffffffffffffffff168273ffffffffffffffffffffffffffffffffffffffff161415611700576040517f08c379a00000000000000000000000000000000000000000000000000000000081526004016116f790613471565b60405180910390fd5b61170981611014565b15611749576040517f08c379a0000000000000000000000000000000000000000000000000000000008152600401611740906134dd565b60405180910390fd5b611755600083836119ec565b6001600360008473ffffffffffffffffffffffffffffffffffffffff1673ffffffffffffffffffffffffffffffffffffffff16815260200190815260200160002060008282546117a5919061327a565b92505081905550816002600083815260200190815260200160002060006101000a81548173ffffffffffffffffffffffffffffffffffffffff021916908373ffffffffffffffffffffffffffffffffffffffff160217905550808273ffffffffffffffffffffffffffffffffffffffff16600073ffffffffffffffffffffffffffffffffffffffff167fddf252ad1be2c89b69c2b068fc378daa952ba7f163c4a11628f55a4df523b3ef60405160405180910390a45050565b61186782611014565b6118a6576040517f08c379a000000000000000000000000000000000000000000000000000000000815260040161189d9061356f565b60405180910390fd5b806006600084815260200190815260200160002090805190602001906118cd929190612106565b505050565b6118dd84848461121f565b6118e984848484611a48565b611928576040517f08c379a000000000000000000000000000000000000000000000000000000000815260040161191f90613601565b60405180910390fd5b50505050565b606060405180602001604052806000815250905090565b606061195082611014565b61198f576040517f08c379a000000000000000000000000000000000000000000000000000000000815260040161198690613693565b60405180910390fd5b600061199961192e565b905060008151116119b957604051806020016040528060008152506119e4565b806119c384611bdf565b6040516020016119d4929190612fda565b6040516020818303038152906040525b915050919050565b505050565b600081604051602001611a04919061372a565b604051602081830303815290604052805190602001209050919050565b6000806000611a308585611d40565b91509150611a3d81611dc3565b819250505092915050565b6000611a698473ffffffffffffffffffffffffffffffffffffffff16611f98565b15611bd2578373ffffffffffffffffffffffffffffffffffffffff1663150b7a02611a92611080565b8786866040518563ffffffff1660e01b8152600401611ab494939291906137a5565b602060405180830381600087803b158015611ace57600080fd5b505af1925050508015611aff57506040513d601f19601f82011682018060405250810190611afc9190613806565b60015b611b82573d8060008114611b2f576040519150601f19603f3d011682016040523d82523d6000602084013e611b34565b606091505b50600081511415611b7a576040517f08c379a0000000000000000000000000000000000000000000000000000000008152600401611b7190613601565b60405180910390fd5b805181602001fd5b63150b7a0260e01b7bffffffffffffffffffffffffffffffffffffffffffffffffffffffff1916817bffffffffffffffffffffffffffffffffffffffffffffffffffffffff191614915050611bd7565b600190505b949350505050565b60606000821415611c27576040518060400160405280600181526020017f30000000000000000000000000000000000000000000000000000000000000008152509050611d3b565b600082905060005b60008214611c59578080611c4290612eff565b915050600a82611c529190613862565b9150611c2f565b60008167ffffffffffffffff811115611c7557611c7461257e565b5b6040519080825280601f01601f191660200182016040528015611ca75781602001600182028036833780820191505090505b5090505b60008514611d3457600182611cc09190613246565b9150600a85611ccf9190613893565b6030611cdb919061327a565b60f81b818381518110611cf157611cf06138c4565b5b60200101907effffffffffffffffffffffffffffffffffffffffffffffffffffffffffffff1916908160001a905350600a85611d2d9190613862565b9450611cab565b8093505050505b919050565b600080604183511415611d825760008060006020860151925060408601519150606086015160001a9050611d7687828585611fab565b94509450505050611dbc565b604083511415611db3576000806020850151915060408501519050611da88683836120b8565b935093505050611dbc565b60006002915091505b9250929050565b60006004811115611dd757611dd66138f3565b5b816004811115611dea57611de96138f3565b5b1415611df557611f95565b60016004811115611e0957611e086138f3565b5b816004811115611e1c57611e1b6138f3565b5b1415611e5d576040517f08c379a0000000000000000000000000000000000000000000000000000000008152600401611e549061396e565b60405180910390fd5b60026004811115611e7157611e706138f3565b5b816004811115611e8457611e836138f3565b5b1415611ec5576040517f08c379a0000000000000000000000000000000000000000000000000000000008152600401611ebc906139da565b60405180910390fd5b60036004811115611ed957611ed86138f3565b5b816004811115611eec57611eeb6138f3565b5b1415611f2d576040517f08c379a0000000000000000000000000000000000000000000000000000000008152600401611f2490613a6c565b60405180910390fd5b600480811115611f4057611f3f6138f3565b5b816004811115611f5357611f526138f3565b5b1415611f94576040517f08c379a0000000000000000000000000000000000000000000000000000000008152600401611f8b90613afe565b60405180910390fd5b5b50565b600080823b905060008111915050919050565b6000807f7fffffffffffffffffffffffffffffff5d576e7357a4501ddfe92f46681b20a08360001c1115611fe65760006003915091506120af565b601b8560ff1614158015611ffe5750601c8560ff1614155b156120105760006004915091506120af565b6000600187878787604051600081526020016040526040516120359493929190613b49565b6020604051602081039080840390855afa158015612057573d6000803e3d6000fd5b505050602060405103519050600073ffffffffffffffffffffffffffffffffffffffff168173ffffffffffffffffffffffffffffffffffffffff1614156120a6576000600192509250506120af565b80600092509250505b94509492505050565b6000806000807f7fffffffffffffffffffffffffffffffffffffffffffffffffffffffffffffff85169150601b8560ff1c0190506120f887828885611fab565b935093505050935093915050565b828054612112906128f7565b90600052602060002090601f016020900481019282612134576000855561217b565b82601f1061214d57805160ff191683800117855561217b565b8280016001018555821561217b579182015b8281111561217a57825182559160200191906001019061215f565b5b509050612188919061218c565b5090565b5b808211156121a557600081600090555060010161218d565b5090565b6000604051905090565b600080fd5b600080fd5b60007fffffffff0000000000000000000000000000000000000000000000000000000082169050919050565b6121f2816121bd565b81146121fd57600080fd5b50565b60008135905061220f816121e9565b92915050565b60006020828403121561222b5761222a6121b3565b5b600061223984828501612200565b91505092915050565b60008115159050919050565b61225781612242565b82525050565b6000602082019050612272600083018461224e565b92915050565b600081519050919050565b600082825260208201905092915050565b60005b838110156122b2578082015181840152602081019050612297565b838111156122c1576000848401525b50505050565b6000601f19601f8301169050919050565b60006122e382612278565b6122ed8185612283565b93506122fd818560208601612294565b612306816122c7565b840191505092915050565b6000602082019050818103600083015261232b81846122d8565b905092915050565b6000819050919050565b61234681612333565b811461235157600080fd5b50565b6000813590506123638161233d565b92915050565b60006020828403121561237f5761237e6121b3565b5b600061238d84828501612354565b91505092915050565b600073ffffffffffffffffffffffffffffffffffffffff82169050919050565b60006123c182612396565b9050919050565b6123d1816123b6565b82525050565b60006020820190506123ec60008301846123c8565b92915050565b6123fb816123b6565b811461240657600080fd5b50565b600081359050612418816123f2565b92915050565b60008060408385031215612435576124346121b3565b5b600061244385828601612409565b925050602061245485828601612354565b9150509250929050565b600080600060608486031215612477576124766121b3565b5b600061248586828701612409565b935050602061249686828701612409565b92505060406124a786828701612354565b9150509250925092565b6000602082840312156124c7576124c66121b3565b5b60006124d584828501612409565b91505092915050565b6124e781612333565b82525050565b600060208201905061250260008301846124de565b92915050565b61251181612242565b811461251c57600080fd5b50565b60008135905061252e81612508565b92915050565b6000806040838503121561254b5761254a6121b3565b5b600061255985828601612409565b925050602061256a8582860161251f565b9150509250929050565b600080fd5b600080fd5b7f4e487b7100000000000000000000000000000000000000000000000000000000600052604160045260246000fd5b6125b6826122c7565b810181811067ffffffffffffffff821117156125d5576125d461257e565b5b80604052505050565b60006125e86121a9565b90506125f482826125ad565b919050565b600067ffffffffffffffff8211156126145761261361257e565b5b61261d826122c7565b9050602081019050919050565b82818337600083830152505050565b600061264c612647846125f9565b6125de565b90508281526020810184848401111561266857612667612579565b5b61267384828561262a565b509392505050565b600082601f8301126126905761268f612574565b5b81356126a0848260208601612639565b91505092915050565b600067ffffffffffffffff8211156126c4576126c361257e565b5b6126cd826122c7565b9050602081019050919050565b60006126ed6126e8846126a9565b6125de565b90508281526020810184848401111561270957612708612579565b5b61271484828561262a565b509392505050565b600082601f83011261273157612730612574565b5b81356127418482602086016126da565b91505092915050565b60008060008060808587031215612764576127636121b3565b5b600061277287828801612409565b945050602085013567ffffffffffffffff811115612793576127926121b8565b5b61279f8782880161267b565b935050604085013567ffffffffffffffff8111156127c0576127bf6121b8565b5b6127cc8782880161267b565b925050606085013567ffffffffffffffff8111156127ed576127ec6121b8565b5b6127f98782880161271c565b91505092959194509250565b6000806000806080858703121561281f5761281e6121b3565b5b600061282d87828801612409565b945050602061283e87828801612409565b935050604061284f87828801612354565b925050606085013567ffffffffffffffff8111156128705761286f6121b8565b5b61287c8782880161271c565b91505092959194509250565b6000806040838503121561289f5761289e6121b3565b5b60006128ad85828601612409565b92505060206128be85828601612409565b9150509250929050565b7f4e487b7100000000000000000000000000000000000000000000000000000000600052602260045260246000fd5b6000600282049050600182168061290f57607f821691505b60208210811415612923576129226128c8565b5b50919050565b7f4552433732313a20617070726f76656420717565727920666f72206e6f6e657860008201527f697374656e7420746f6b656e0000000000000000000000000000000000000000602082015250565b6000612985602c83612283565b915061299082612929565b604082019050919050565b600060208201905081810360008301526129b481612978565b9050919050565b7f4552433732313a20617070726f76616c20746f2063757272656e74206f776e6560008201527f7200000000000000000000000000000000000000000000000000000000000000602082015250565b6000612a17602183612283565b9150612a22826129bb565b604082019050919050565b60006020820190508181036000830152612a4681612a0a565b9050919050565b7f4552433732313a20617070726f76652063616c6c6572206973206e6f74206f7760008201527f6e6572206e6f7220617070726f76656420666f7220616c6c0000000000000000602082015250565b6000612aa9603883612283565b9150612ab482612a4d565b604082019050919050565b60006020820190508181036000830152612ad881612a9c565b9050919050565b7f4552433732313a207472616e736665722063616c6c6572206973206e6f74206f60008201527f776e6572206e6f7220617070726f766564000000000000000000000000000000602082015250565b6000612b3b603183612283565b9150612b4682612adf565b604082019050919050565b60006020820190508181036000830152612b6a81612b2e565b9050919050565b7f4552433732313a206f776e657220717565727920666f72206e6f6e657869737460008201527f656e7420746f6b656e0000000000000000000000000000000000000000000000602082015250565b6000612bcd602983612283565b9150612bd882612b71565b604082019050919050565b60006020820190508181036000830152612bfc81612bc0565b9050919050565b7f4552433732313a2062616c616e636520717565727920666f7220746865207a6560008201527f726f206164647265737300000000000000000000000000000000000000000000602082015250565b6000612c5f602a83612283565b9150612c6a82612c03565b604082019050919050565b60006020820190508181036000830152612c8e81612c52565b9050919050565b7f4f776e61626c653a2063616c6c6572206973206e6f7420746865206f776e6572600082015250565b6000612ccb602083612283565b9150612cd682612c95565b602082019050919050565b60006020820190508181036000830152612cfa81612cbe565b9050919050565b7f4552433732313a20617070726f766520746f2063616c6c657200000000000000600082015250565b6000612d37601983612283565b9150612d4282612d01565b602082019050919050565b60006020820190508181036000830152612d6681612d2a565b9050919050565b600081905092915050565b60008190508160005260206000209050919050565b60008154612d9a816128f7565b612da48186612d6d565b94506001821660008114612dbf5760018114612dd057612e03565b60ff19831686528186019350612e03565b612dd985612d78565b60005b83811015612dfb57815481890152600182019150602081019050612ddc565b838801955050505b50505092915050565b7f2f00000000000000000000000000000000000000000000000000000000000000600082015250565b6000612e42600183612d6d565b9150612e4d82612e0c565b600182019050919050565b6000612e6382612278565b612e6d8185612d6d565b9350612e7d818560208601612294565b80840191505092915050565b6000612e958286612d8d565b9150612ea082612e35565b9150612eac8285612e58565b9150612eb782612e35565b9150612ec38284612e58565b9150819050949350505050565b7f4e487b7100000000000000000000000000000000000000000000000000000000600052601160045260246000fd5b6000612f0a82612333565b91507fffffffffffffffffffffffffffffffffffffffffffffffffffffffffffffffff821415612f3d57612f3c612ed0565b5b600182019050919050565b7f45524337323155524953746f726167653a2055524920717565727920666f722060008201527f6e6f6e6578697374656e7420746f6b656e000000000000000000000000000000602082015250565b6000612fa4603183612283565b9150612faf82612f48565b604082019050919050565b60006020820190508181036000830152612fd381612f97565b9050919050565b6000612fe68285612e58565b9150612ff28284612e58565b91508190509392505050565b7f4f776e61626c653a206e6577206f776e657220697320746865207a65726f206160008201527f6464726573730000000000000000000000000000000000000000000000000000602082015250565b600061305a602683612283565b915061306582612ffe565b604082019050919050565b600060208201905081810360008301526130898161304d565b9050919050565b7f4552433732313a206f70657261746f7220717565727920666f72206e6f6e657860008201527f697374656e7420746f6b656e0000000000000000000000000000000000000000602082015250565b60006130ec602c83612283565b91506130f782613090565b604082019050919050565b6000602082019050818103600083015261311b816130df565b9050919050565b7f4552433732313a207472616e73666572206f6620746f6b656e2074686174206960008201527f73206e6f74206f776e0000000000000000000000000000000000000000000000602082015250565b600061317e602983612283565b915061318982613122565b604082019050919050565b600060208201905081810360008301526131ad81613171565b9050919050565b7f4552433732313a207472616e7366657220746f20746865207a65726f2061646460008201527f7265737300000000000000000000000000000000000000000000000000000000602082015250565b6000613210602483612283565b915061321b826131b4565b604082019050919050565b6000602082019050818103600083015261323f81613203565b9050919050565b600061325182612333565b915061325c83612333565b92508282101561326f5761326e612ed0565b5b828203905092915050565b600061328582612333565b915061329083612333565b9250827fffffffffffffffffffffffffffffffffffffffffffffffffffffffffffffffff038211156132c5576132c4612ed0565b5b828201905092915050565b60008160601b9050919050565b60006132e8826132d0565b9050919050565b60006132fa826132dd565b9050919050565b61331261330d826123b6565b6132ef565b82525050565b60006133248286613301565b6014820191506133348285612e58565b91506133408284612e58565b9150819050949350505050565b7f616c7265616479206d696e746564000000000000000000000000000000000000600082015250565b6000613383600e83612283565b915061338e8261334d565b602082019050919050565b600060208201905081810360008301526133b281613376565b9050919050565b7f696e76616c6964207369676e6174757265000000000000000000000000000000600082015250565b60006133ef601183612283565b91506133fa826133b9565b602082019050919050565b6000602082019050818103600083015261341e816133e2565b9050919050565b7f4552433732313a206d696e7420746f20746865207a65726f2061646472657373600082015250565b600061345b602083612283565b915061346682613425565b602082019050919050565b6000602082019050818103600083015261348a8161344e565b9050919050565b7f4552433732313a20746f6b656e20616c7265616479206d696e74656400000000600082015250565b60006134c7601c83612283565b91506134d282613491565b602082019050919050565b600060208201905081810360008301526134f6816134ba565b9050919050565b7f45524337323155524953746f726167653a2055524920736574206f66206e6f6e60008201527f6578697374656e7420746f6b656e000000000000000000000000000000000000602082015250565b6000613559602e83612283565b9150613564826134fd565b604082019050919050565b600060208201905081810360008301526135888161354c565b9050919050565b7f4552433732313a207472616e7366657220746f206e6f6e20455243373231526560008201527f63656976657220696d706c656d656e7465720000000000000000000000000000602082015250565b60006135eb603283612283565b91506135f68261358f565b604082019050919050565b6000602082019050818103600083015261361a816135de565b9050919050565b7f4552433732314d657461646174613a2055524920717565727920666f72206e6f60008201527f6e6578697374656e7420746f6b656e0000000000000000000000000000000000602082015250565b600061367d602f83612283565b915061368882613621565b604082019050919050565b600060208201905081810360008301526136ac81613670565b9050919050565b7f19457468657265756d205369676e6564204d6573736167653a0a333200000000600082015250565b60006136e9601c83612d6d565b91506136f4826136b3565b601c82019050919050565b6000819050919050565b6000819050919050565b61372461371f826136ff565b613709565b82525050565b6000613735826136dc565b91506137418284613713565b60208201915081905092915050565b600081519050919050565b600082825260208201905092915050565b600061377782613750565b613781818561375b565b9350613791818560208601612294565b61379a816122c7565b840191505092915050565b60006080820190506137ba60008301876123c8565b6137c760208301866123c8565b6137d460408301856124de565b81810360608301526137e6818461376c565b905095945050505050565b600081519050613800816121e9565b92915050565b60006020828403121561381c5761381b6121b3565b5b600061382a848285016137f1565b91505092915050565b7f4e487b7100000000000000000000000000000000000000000000000000000000600052601260045260246000fd5b600061386d82612333565b915061387883612333565b92508261388857613887613833565b5b828204905092915050565b600061389e82612333565b91506138a983612333565b9250826138b9576138b8613833565b5b828206905092915050565b7f4e487b7100000000000000000000000000000000000000000000000000000000600052603260045260246000fd5b7f4e487b7100000000000000000000000000000000000000000000000000000000600052602160045260246000fd5b7f45434453413a20696e76616c6964207369676e61747572650000000000000000600082015250565b6000613958601883612283565b915061396382613922565b602082019050919050565b600060208201905081810360008301526139878161394b565b9050919050565b7f45434453413a20696e76616c6964207369676e6174757265206c656e67746800600082015250565b60006139c4601f83612283565b91506139cf8261398e565b602082019050919050565b600060208201905081810360008301526139f3816139b7565b9050919050565b7f45434453413a20696e76616c6964207369676e6174757265202773272076616c60008201527f7565000000000000000000000000000000000000000000000000000000000000602082015250565b6000613a56602283612283565b9150613a61826139fa565b604082019050919050565b60006020820190508181036000830152613a8581613a49565b9050919050565b7f45434453413a20696e76616c6964207369676e6174757265202776272076616c60008201527f7565000000000000000000000000000000000000000000000000000000000000602082015250565b6000613ae8602283612283565b9150613af382613a8c565b604082019050919050565b60006020820190508181036000830152613b1781613adb565b9050919050565b613b27816136ff565b82525050565b600060ff82169050919050565b613b4381613b2d565b82525050565b6000608082019050613b5e6000830187613b1e565b613b6b6020830186613b3a565b613b786040830185613b1e565b613b856060830184613b1e565b9594505050505056fea2646970667358221220feed3f43570bd7f75bb17372f6b2e0b922297146b07a9f004e19d6fbe0f01ae264736f6c63430008090033",
  "devdoc": {
    "author": "Noah Citron",
    "details": "ERC721 contract that permissions minting to require a valid signature from the contract owner.          The tokenURI has also been modified to resolve to baseUrl/integration/task which the Ethchievements          backend will use as a path to store the appropriate NFT image",
    "kind": "dev",
    "methods": {
      "approve(address,uint256)": {
        "details": "See {IERC721-approve}."
      },
      "balanceOf(address)": {
        "details": "See {IERC721-balanceOf}."
      },
      "constructor": {
        "params": {
          "_base": "the base url of the NFT"
        }
      },
      "getApproved(uint256)": {
        "details": "See {IERC721-getApproved}."
      },
      "isApprovedForAll(address,address)": {
        "details": "See {IERC721-isApprovedForAll}."
      },
      "mint(address,string,string,bytes)": {
        "params": {
          "_integration": "the integration name for the Ethchievement",
          "_sig": "the eth signed message by the owner of keccak(_to + _integration + _task)",
          "_task": "the task name for the Ethchievement",
          "_to": "the recipient of the NFT"
        }
      },
      "name()": {
        "details": "See {IERC721Metadata-name}."
      },
      "owner()": {
        "details": "Returns the address of the current owner."
      },
      "ownerOf(uint256)": {
        "details": "See {IERC721-ownerOf}."
      },
      "renounceOwnership()": {
        "details": "Leaves the contract without owner. It will not be possible to call `onlyOwner` functions anymore. Can only be called by the current owner. NOTE: Renouncing ownership will leave the contract without an owner, thereby removing any functionality that is only available to the owner."
      },
      "safeTransferFrom(address,address,uint256)": {
        "details": "See {IERC721-safeTransferFrom}."
      },
      "safeTransferFrom(address,address,uint256,bytes)": {
        "details": "See {IERC721-safeTransferFrom}."
      },
      "setApprovalForAll(address,bool)": {
        "details": "See {IERC721-setApprovalForAll}."
      },
      "supportsInterface(bytes4)": {
        "details": "See {IERC165-supportsInterface}."
      },
      "symbol()": {
        "details": "See {IERC721Metadata-symbol}."
      },
      "tokenURI(uint256)": {
        "details": "See {IERC721Metadata-tokenURI}."
      },
      "transferFrom(address,address,uint256)": {
        "details": "See {IERC721-transferFrom}."
      },
      "transferOwnership(address)": {
        "details": "Transfers ownership of the contract to a new account (`newOwner`). Can only be called by the current owner."
      }
    },
    "title": "Ethchievements",
    "version": 1
  },
  "userdoc": {
    "kind": "user",
    "methods": {
      "constructor": {
        "notice": "Sets the state variables"
      },
      "mint(address,string,string,bytes)": {
        "notice": "Mints a new Ethchievement NFT. In order to mint, must provide a valid singature of the keccak hash of  the minter, integration, and task. This message should be formatted as if it were produced by the eth_signMessage RPC call. Replay attacks are prevented by disallowing multiple mints with the same minter, integration, task combination."
      }
    },
    "version": 1
  },
  "storageLayout": {
    "storage": [
      {
        "astId": 129,
        "contract": "contracts/Ethchievements.sol:Ethchievements",
        "label": "_name",
        "offset": 0,
        "slot": "0",
        "type": "t_string_storage"
      },
      {
        "astId": 131,
        "contract": "contracts/Ethchievements.sol:Ethchievements",
        "label": "_symbol",
        "offset": 0,
        "slot": "1",
        "type": "t_string_storage"
      },
      {
        "astId": 135,
        "contract": "contracts/Ethchievements.sol:Ethchievements",
        "label": "_owners",
        "offset": 0,
        "slot": "2",
        "type": "t_mapping(t_uint256,t_address)"
      },
      {
        "astId": 139,
        "contract": "contracts/Ethchievements.sol:Ethchievements",
        "label": "_balances",
        "offset": 0,
        "slot": "3",
        "type": "t_mapping(t_address,t_uint256)"
      },
      {
        "astId": 143,
        "contract": "contracts/Ethchievements.sol:Ethchievements",
        "label": "_tokenApprovals",
        "offset": 0,
        "slot": "4",
        "type": "t_mapping(t_uint256,t_address)"
      },
      {
        "astId": 149,
        "contract": "contracts/Ethchievements.sol:Ethchievements",
        "label": "_operatorApprovals",
        "offset": 0,
        "slot": "5",
        "type": "t_mapping(t_address,t_mapping(t_address,t_bool))"
      },
      {
        "astId": 1066,
        "contract": "contracts/Ethchievements.sol:Ethchievements",
        "label": "_tokenURIs",
        "offset": 0,
        "slot": "6",
        "type": "t_mapping(t_uint256,t_string_storage)"
      },
      {
        "astId": 7,
        "contract": "contracts/Ethchievements.sol:Ethchievements",
        "label": "_owner",
        "offset": 0,
        "slot": "7",
        "type": "t_address"
      },
      {
        "astId": 2150,
        "contract": "contracts/Ethchievements.sol:Ethchievements",
        "label": "base",
        "offset": 0,
        "slot": "8",
        "type": "t_string_storage"
      },
      {
        "astId": 2152,
        "contract": "contracts/Ethchievements.sol:Ethchievements",
        "label": "currentId",
        "offset": 0,
        "slot": "9",
        "type": "t_uint256"
      },
      {
        "astId": 2156,
        "contract": "contracts/Ethchievements.sol:Ethchievements",
        "label": "alreadyMinted",
        "offset": 0,
        "slot": "10",
        "type": "t_mapping(t_bytes32,t_bool)"
      }
    ],
    "types": {
      "t_address": {
        "encoding": "inplace",
        "label": "address",
        "numberOfBytes": "20"
      },
      "t_bool": {
        "encoding": "inplace",
        "label": "bool",
        "numberOfBytes": "1"
      },
      "t_bytes32": {
        "encoding": "inplace",
        "label": "bytes32",
        "numberOfBytes": "32"
      },
      "t_mapping(t_address,t_bool)": {
        "encoding": "mapping",
        "key": "t_address",
        "label": "mapping(address => bool)",
        "numberOfBytes": "32",
        "value": "t_bool"
      },
      "t_mapping(t_address,t_mapping(t_address,t_bool))": {
        "encoding": "mapping",
        "key": "t_address",
        "label": "mapping(address => mapping(address => bool))",
        "numberOfBytes": "32",
        "value": "t_mapping(t_address,t_bool)"
      },
      "t_mapping(t_address,t_uint256)": {
        "encoding": "mapping",
        "key": "t_address",
        "label": "mapping(address => uint256)",
        "numberOfBytes": "32",
        "value": "t_uint256"
      },
      "t_mapping(t_bytes32,t_bool)": {
        "encoding": "mapping",
        "key": "t_bytes32",
        "label": "mapping(bytes32 => bool)",
        "numberOfBytes": "32",
        "value": "t_bool"
      },
      "t_mapping(t_uint256,t_address)": {
        "encoding": "mapping",
        "key": "t_uint256",
        "label": "mapping(uint256 => address)",
        "numberOfBytes": "32",
        "value": "t_address"
      },
      "t_mapping(t_uint256,t_string_storage)": {
        "encoding": "mapping",
        "key": "t_uint256",
        "label": "mapping(uint256 => string)",
        "numberOfBytes": "32",
        "value": "t_string_storage"
      },
      "t_string_storage": {
        "encoding": "bytes",
        "label": "string",
        "numberOfBytes": "32"
      },
      "t_uint256": {
        "encoding": "inplace",
        "label": "uint256",
        "numberOfBytes": "32"
      }
    }
  }
}